:020000040000FA
:06000000CDEF1AF0120022
:0600080004EF08F01200F5
:060018000CEF08F01200DD
:06100000CDEF1AF0120012
:021006001200D6
:061008005AEF11F0120086
:02100E000000E0
:0110100000DF
:06101800A5EF11F012002B
:02101E000100CF
:0C1020000E100000F500000003000000AE
:04102C00D9CFE6FF33
:10103000E1CFD9FFE652A0940F015F6B626A536B58
:10104000020EE66EE66AE66A540EE66E0F0EE66E75
:1010500001EC1AF0106E050EE15E1050160E616E76
:101060000F019F0E5B6F7B0E606EDF6ADF50106EAC
:10107000116A0C0E105C000E115810E2DF50040DC6
:10108000F3CFE9FFF4CFEAFF000EE926020EEA22D1
:10109000EE6AEE6AEE6AEE6ADF2AE8D7648C0F0128
:1010A0005C6B6498649C62A607D062960001CE6B6C
:1010B000D36BD46BD56BF7D70001010EE76FE86FE8
:1010C000E96BEA6BDB6BDF6A030EDF5C26E2EA6A40
:1010D000DF34FE0BEA36E96EC40EE926000EEA2282
:1010E000EE6AED6AEA6ADF34FE0BEA36E96EBE0E9E
:1010F000E926000EEA22EE6AED6ADF50EA6ADF0FA7
:10110000E96E000EEA22EF6ADF50EA6AE20FE96E4A
:10111000000EEA22EF6ADF2AD7D70001080EC46F5B
:10112000020EC56F0F01160E536F0201300E026FD3
:10113000020E036F080E016F840E006F0001B86B82
:10114000B76BE552E552E7CFD9FF1200D9CFE6FFE2
:10115000E1CFD9FFE6520001B70507E164BA05D037
:10116000626A60806088020EB76F6250040B05E00F
:101170006050040B02E06294C8D864B258D0625048
:10118000010B09E06050010B06E050DFA084000174
:10119000040EB76F62906250100B05E06050100BA8
:1011A00002E09ED8629862AC19D060AC0FD0010EFC
:1011B000E66EE66A000EE66EE66A730EE66EE66AB4
:1011C000FBEC15F0106E060EE15E1050629C000103
:1011D000E55101E0E507E55101E15BDB6250200BE1
:1011E00004E06050200B01E061D86250020B14E073
:1011F0006050020B11E0010EE66EE66A000EE66E2C
:10120000E66AE6687F0EE66EFBEC15F0106E060EE1
:10121000E15E10500F015F6B040E0001E76EB7191D
:10122000E8AE02D0E73402D0E750B75D02E2A19405
:1012300038D060A635D0DF6A040EDF5C31E262A6EA
:101240002FD063CFDCF00001DC51780BE842E8429C
:10125000E842DD6F6296DCB506D0DD51EA6AE20F46
:10126000E96E000E05D0DD51EA6ADF0FE96E000E6F
:10127000EA22EF70DD5102E15FD810D0000EE66E79
:10128000E66ADC0EE66E000EE66E720EE66EE66A4A
:10129000FBEC15F0106E060EE15E1050DF2ACCD785
:1012A000A194E552E552E7CFD9FF12000F0153A1F7
:1012B00015D0BAC0E9FFBBC0EAFFEF5080080DE1CE
:1012C000C4C0E9FFC5C0EAFFEF50840806E1BAC018
:1012D000E9FFBBC0EAFF8C0EEF6E5391629A1200D9
:1012E0006084629864820001010EDB6F000EE66E7E
:1012F000E66AE66EE66A750EE66EE66AFBEC15F0E7
:10130000106E060EE15E105012000001DB6B000E45
:10131000E66EE66AE66EE66A740EE66EE66AFBEC78
:1013200015F0106E060EE15E10506492609462A497
:1013300002D06294FCD71200D9CFE6FFE1CFD9FFEB
:10134000E65200012D0EE56FFD0EDC1553E17E0E19
:10135000DC15E8407F0B040DF3CFBAF0F4CFBBF0FF
:10136000000EBA27020EBB23BAC0BCF0BBC0BDF052
:10137000BC75BAC0E9FFBBC0EAFFEF503C0BE842C6
:10138000E8420D0835E1DF6A080EDF5C23E2BAC0EF
:10139000E9FFBBC0EAFF020EE926000EEA22EE508A
:1013A000EFCFEAFFE96EEF50E66EDF50EA6A300FEA
:1013B000E96E020EEA22E552E750EF6EBAC0E9FF8D
:1013C000BBC0EAFF020EE926000EEA22EE2AEF2257
:1013D000DF2ADAD7BAC0E9FFBBC0EAFF020EE9266E
:1013E000000EEA22300EEE6E020EED6E0DD807D022
:1013F0003AD805D0FD0EDC15040801E159D8E552B4
:10140000E552E7CFD9FF12000001CA6BE66BE96B2A
:10141000EA6BDE6BCB6BC4C0E9FFC5C0EAFFEF9E91
:10142000C475C4C0E9FFC5C0EAFFEF9EC475BCC067
:10143000E9FFBDC0EAFFEF9ECE6BCF6BD06BD36BE5
:10144000D46BD56B8FD8000EE66EE66AE66EE66A60
:10145000030EE66EE66AFBEC15F0106E060EE15E1A
:10146000105096EF0DF0020E0001CB5D02E156EF39
:101470000EF0CB6BDE511AE1BCC0E9FFBDC0EAFF44
:10148000EE52080EEF6EBCC0E9FFBDC0EAFF020ECF
:10149000E926000EEA22300EEE6E020EED6EBCC0A2
:1014A000E9FFBDC0EAFF8C0EEF6E1200DE6B12008A
:1014B000D9CFE6FFE1CFD9FFE652C4C0E9FFC5C0EE
:1014C000EAFFEF50400B01E0010EDF6E0001C47532
:1014D000080EB75D0BE132C25CFF0F015C5103E007
:1014E0000001100E02D00001040EB76FCB0526E1FB
:1014F000C4C0E9FFC5C0EAFF020EE926000EEA22D9
:10150000380EEE6E020EED6E72DB020E0001CA5D49
:1015100006E1C4C0E9FFC5C0EAFF840E0DD0DF506C
:1015200006E1C4C0E9FFC5C0EAFFC80E05D0C4C0CB
:10153000E9FFC5C0EAFF880EEF6E0FD0D3AF0CD025
:10154000D651D71107E005D0D7C0FAFF0001D65118
:10155000F96EFADF0001D39FCB6BE552E552E7CF7E
:10156000D9FF120002013051600BE842E842E84224
:10157000E842E842000901E0120031510C0A50E053
:101580000B0A3FE00C0A31E0010A22E00B0A1EE0E0
:10159000020A1CE0030A18E0080A10E0010A0CE045
:1015A0000F0A08E0030A01E012000001CE8F080EC6
:1015B000B76F1200D8EF0CF0F5EF0EF00001B80E87
:1015C000CC6F000ECD6F0CD035EF0DF011EF0BF09E
:1015D00034510001CC6FCD6BB90ECC27000ECD235A
:1015E000CE81010ECF6FCE8F12000001CE8F02018F
:1015F0003451EA6AB90FE96E000EEA2232C2EFFFF7
:101600001200000EE66EE66AE66EE66A020EE66E0E
:10161000E66AFBEC15F0106E060EE15E105012004B
:101620001200D9CFE6FFE1CFD9FF050EE126020176
:10163000320510E130511F0B00090CE10001CE8F83
:10164000030E0201315D04E10001010EDA6F02D0E8
:101650000001DA6B0201325101E011D130511F0B50
:10166000020801E00CD134510F0B000901E107D150
:1016700034510F0B020801E202D1200E0001B75DC8
:1016800001E0FDD0CE8F020134BF16D034510F0BD4
:10169000E96EEA6AD890E936EA36BE0EE926000E0F
:1016A000EA22EECFDEFFEDCFDDFF34510F0BEA6A09
:1016B000E20FE96E000E15D034510F0BE96EEA6AA5
:1016C000D890E936EA36C40EE926000EEA22EECFBB
:1016D000DEFFEDCFDDFF34510F0BEA6ADF0FE96E5D
:1016E000000EEA22020EEFCFDBFFD950020FE96EA7
:1016F000DACFEAFFEF50010B03E1000EDF9401D0D7
:10170000DF8434BF0BD034510F0BE96EEA6AD890F6
:10171000E936EA36BE0EE926000E0AD034510F0B28
:10172000E96EEA6AD890E936EA36C40EE926000E78
:10173000EA22DECFEEFFDDCFEDFF030E315D20E1CB
:10174000DECFE9FFDDCFEAFFEF50800B11E034BFC1
:1017500007D034510F0BEA6AE20FE96E000E06D093
:1017600034510F0BEA6ADF0FE96E000EEA22EF82B6
:10177000840EDECFE9FFDDCFEAFFE850EF127FD025
:10178000DF74DECFE9FFDDCFEAFFEF50800B1BE017
:10179000DECFE9FFDDCFEAFFEF9EDECFE9FFDDCF51
:1017A000EAFFEF8C020EE66EE66ADECFE6FFDDCFE3
:1017B000E6FF050EE66EE66AFBEC15F0106E060E0F
:1017C000E15E105005D0DECFE9FFDDCFEAFFEF8C00
:1017D000DF74D950020FE96EDACFEAFFEF50020B47
:1017E00007E1DECFE9FFDDCFEAFFEF50800B2BE012
:1017F000020134BF07D034510F0BEA6AE20FE96EE1
:10180000000E06D034510F0BEA6ADF0FE96E000EAE
:10181000EA22EF923B0E106EDECFE9FFDDCFEAFF4A
:10182000E850EF16020EE66EE66ADECFE6FFDDCF89
:10183000E6FF050EE66EE66AFBEC15F0106E060E8E
:10184000E15E105007D03B0EDECFE9FFDDCFEAFFAF
:10185000E850EF16020134510F0B116A530F106E4E
:101860000F0E1122030E10C0DBFF040E11C0DBFFB0
:10187000030EDBCFE9FF040EDBCFEAFFEF90050E8E
:10188000E15C02E2E16AE552E16EE552E7CFD9FFA1
:1018900012000001E7514DE1010EE76FE85149E107
:1018A000010EE86F020ECB5D0DE1C4C0E9FFC5C0BB
:1018B000EAFFEE52EF6AC4C0E9FFC5C0EAFFC80EF6
:1018C000EF6E1200CB0535E1DE6BBAC0E9FFBBC09D
:1018D000EAFFEE52080EEF6EBAC0E9FFBBC0EAFFA6
:1018E000020EE926000EEA22300EEE6E020EED6EBA
:1018F000BAC0E9FFBBC0EAFF840EEF6E010EDE6FD7
:10190000BCC0E9FFBDC0EAFFEE52080EEF6EBCC0DE
:10191000E9FFBDC0EAFF020EE926000EEA22300E02
:10192000EE6E020EED6EBCC0E9FFBDC0EAFF800E98
:10193000EF6E12000001E96BEA6B020ECB5D18E15D
:10194000BCC0E9FFBDC0EAFFEE52080EEF6EBCC09E
:10195000E9FFBDC0EAFF020EE926000EEA22380EBA
:10196000EE6E020EED6EBCC0E9FFBDC0EAFF1DD0F9
:10197000CF510201365D0001D0510201375904E216
:1019800036C2CFF037C2D0F032D9C4C0E9FFC5C0EB
:10199000EAFF020EE926000EEA22380EEE6E020E73
:1019A000ED6EC4C0E9FFC5C0EAFFC80EEF6E1200BD
:1019B000800E0201305D58E10001C00ECE6F0201C1
:1019C0003351030A2FE0010A09E0030A4BE1000149
:1019D0009A0ECC6F320ECD6F120E3ED03251F66E93
:1019E000F76AD890F636F7365B0EF626330EF722F6
:1019F0000900F5CFCCF00A00F5CFCDF0020E0001C2
:101A0000F76ACC25F66ECD51F7220800F5CFCFF05E
:101A1000030EF76ACC25F66ECD51F7220800F5CFFC
:101A2000D0F01200030E325D1AE23251F66EF76A00
:101A3000D890F636F7365D0EF626330EF7220900FB
:101A4000F5CFCCF00A00F5CFCDF0CCC0F6FFCDC07D
:101A5000F7FF0800F5500001CF6FD06B12000001B6
:101A6000CE6B12000001CE6B1200D9CFE6FFE1CFA2
:101A7000D9FF020EE1260201386B396B30511F0B82
:101A8000020A11E0030A0CE0010A3CE10001CE8FDA
:101A9000020138810001DA0535E10201388332D0D4
:101AA0000001CE8F2FD00001CE8F020134BF0BD0AA
:101AB00034510F0BE96EEA6AD890E936EA36BE0E69
:101AC000E926000E0AD034510F0BE96EEA6AD8906D
:101AD000E936EA36C40EE926000EEA22EECFDEFF32
:101AE000EDCFDDFFDECFE9FFDDCFEAFFEF50800B6A
:101AF00009E0DECFE9FFDDCFEAFFEF50040B02E0A3
:101B0000010E386F0001CEAF07D0380ECC6F020E39
:101B1000CD6FCE81020ECF6F020EE15C02E2E16A70
:101B2000E552E16EE552E7CFD9FF1200649800015B
:101B3000CEBF2BD0D3AF09D0020ECB6FEA5101E15B
:101B4000F9DE0001E86BE76B1200BCC0E9FFBDC025
:101B5000EAFFEE52080EEF6EBCC0E9FFBDC0EAFF1F
:101B6000020EE926000EEA22300EEE6E020EED6E37
:101B7000BCC0E9FFBDC0EAFF8C0EEF6EC4C0E9FF38
:101B8000C5C0EAFF840EEF6E1200020130AF0DD027
:101B90000001010ECB6FE95101E1CCDE0001E86BE1
:101BA000E76BE65123E149EF0CF00001020ECB6F29
:101BB000BCC0E9FFBDC0EAFFEE52080EEF6EBCC02C
:101BC000E9FFBDC0EAFF020EE926000EEA22300E50
:101BD000EE6E020EED6EBCC0E9FFBDC0EAFF840EE2
:101BE000EF6EE86BE76BE65101E153DE1200D9CFEF
:101BF000E6FFE1CFD9FFE652080EDF6E0001CF5DB0
:101C0000000ED0590AE2CFC0DFFFCA5102E1010E37
:101C100003D0CA0502E1020ECA6FDF50116AE85014
:101C2000CF5DCF6F1150D059D06FC4C0E9FFC5C090
:101C3000EAFFEE52DFCFEFFF380ED86F020ED96FFA
:101C4000CEB118D0DF502DE0CCC0F6FFCDC0F7FFED
:101C5000CC2B000ECD230800F550E66ED8C0E9FF6E
:101C6000D9C0EAFFD82B000ED923E552E750EF6E1A
:101C7000DF06E8D7DF5015E0CCC0E9FFCDC0EAFFB2
:101C8000CC2B000ECD23EF50E66ED8C0E9FFD9C0B3
:101C9000EAFFD82B000ED923E552E750EF6EDF069E
:101CA000E9D7E552E552E7CFD9FF1200D9CFE6FFD9
:101CB000E1CFD9FF020EE126BAC0E9FFBBC0EAFFBF
:101CC000EE52EFCFDFFFDFCF10F010500001D45DF8
:101CD000000ED55902E2D4C0DFFFDF50106E116A4A
:101CE000E850D45DD46F1150D559D56F010EDB6A21
:101CF000DF50F36E010EDBCFF4FFF350F45C16E21D
:101D0000010EDB50EA6A380FE96E020EEA22EF504C
:101D1000E66ED1C0E9FFD2C0EAFFD12B000ED2237C
:101D2000E552E750EF6E010EDB2AE2D7000ED880B5
:101D3000D455000ED55527E2BCC0E9FFBDC0EAFF6F
:101D4000EE52080EEF6EBCC0E9FFBDC0EAFF020E06
:101D5000E926000EEA22380EEE6E020EED6EBAC0D3
:101D6000E9FFBBC0EAFFEF50400B06E1BCC0E9FF52
:101D7000BDC0EAFFC80E05D0BCC0E9FFBDC0EAFF88
:101D8000880EEF6E28D0BCC0E9FFBDC0EAFFEE525E
:101D9000080EEF6EBCC0E9FFBDC0EAFF020EE926E7
:101DA000000EEA22300EEE6E020EED6EBCC0E9FFB0
:101DB000BDC0EAFF840EEF6ED651D71107E005D003
:101DC000D7C0FAFF0001D651F96EFADF0001D39FA8
:101DD000E65101E15EDD020EE15C02E2E16AE552FC
:101DE000E16EE552E7CFD9FF1200D9CFE6FFE1CF90
:101DF000D9FFE6520001CE8F020EE66EE66AE66A71
:101E0000540EE66E0F0EE66E01EC1AF0106E050E23
:101E1000E15E1050DF6ADF50106E116A0C0E105C2C
:101E2000000E115810E2DF50040DF3CFE9FFF4CF9C
:101E3000EAFF000EE926020EEA22EE6AEE6AEE6A78
:101E4000EE6ADF2AE8D7648CDF6A030EDF5C10E2FB
:101E5000DF50EA6ADF0FE96E000EEA22EF6ADF5018
:101E6000EA6AE20FE96E000EEA22EF6ADF2AEDD796
:101E7000010EE66EE66AE66AB90EE66E000EE66EE2
:101E800001EC1AF0106E050EE15E1050649C00012A
:101E9000080EC46F020EC56F000EBA6F020EBB6F44
:101EA000BAC0BCF0BD6F32C2B8F0B85102E1100E3A
:101EB00012D0010EE66EE66AB80EE66E000EE66E11
:101EC000010EE66EE66AFBEC15F0106E060EE15EA2
:101ED00010500001200EB76FE552E552E7CFD9FF51
:101EE0001200D9CFE6FFE1CFD9FF020EE126000EA6
:101EF000DE6E020EDD6EFD0EDB50E824126EFE0E6D
:101F0000DB50040DF3501224040DF4CF11F0D9CF9F
:101F1000E9FFDACFEAFFF350EE261150ED22DECFD3
:101F2000E9FFDDCFEAFFEF9EFD0EDB500AE1FE0E7A
:101F3000EA6ADB34FE0BEA36E96EBE0EE926000ED5
:101F400009D0FE0EEA6ADB34FE0BEA36E96EC40EF7
:101F5000E926000EEA22DECFEEFFDDCFEDFFDECF79
:101F6000E9FFDDCFEAFFEF9CDECFE9FFDDCFEAFF3F
:101F7000040EE926000EEA22EF8C020EE15C02E27A
:101F8000E16AE552E16EE552E7CFD9FF1200D9CF01
:101F9000E6FFE1CFD9FF020EE126FD0EDBA407D05C
:101FA000E66AFE0EDBCFE6FF9CDFE552E552FD0E52
:101FB000DBA208D0010EE66EFE0EDBCFE6FF91DF5E
:101FC000E552E552FE0EDB50116A530F106E0F0EF4
:101FD000112210C0DEFF11C0DDFFDECFE9FFDDCF33
:101FE000EAFFFD0EDBCFEFFF020EE15C02E2E16AE9
:101FF000E552E16EE552E7CFD9FF1200D9CFE6FFF7
:10200000E1CFD9FF020EE126FE0EDB5020E1BCC07D
:10201000E9FFBDC0EAFFEE52080EEF6EBCC0E9FF5B
:10202000BDC0EAFF020EE926000EEA22300EEE6E77
:10203000020EED6EBCC0E9FFBDC0EAFF8C0EEF6E74
:10204000C4C0E9FFC5C0EAFF840EEF6E3BD0FD0EB1
:10205000DB50E824126EFE0EDB50040DF350122408
:10206000040DF3CF10F0F4CF11F0000E1026020E85
:10207000112210C0DEFF11C0DDFF840EDECFE9FFAC
:10208000DDCFEAFFE850EF12FD0EDB50E824126EC0
:10209000FE0EDB50040DF3501224010F040DF3CF9C
:1020A00010F0F4CF11F0000E1026020E112210C015
:1020B000DEFF11C0DDFF840EDECFE9FFDDCFEAFFDA
:1020C000E850EF12020EE15C02E2E16AE552E16ED5
:1020D000E552E7CFD9FF1200D9CFE6FFE1CFD9FF14
:1020E000020EE126FD0EDB500AE0FE0EEA6ADB344A
:1020F000FE0BEA36E96EC40EE926000E09D0FE0E8C
:10210000EA6ADB34FE0BEA36E96EBE0EE926000E03
:10211000EA22EECFDEFFEDCFDDFFD9CFE9FFDACF48
:10212000EAFFEE50ED1003E1F36AF46A44D0DECF2B
:10213000E9FFDDCFEAFF020EE926000EEA22FB0EE0
:10214000DBCFEEFFFC0EDBCFEDFFDECFE9FFDDCF17
:10215000EAFFEE52FA0EDBCFEFFF400EDECFE9FFD3
:10216000DDCFEAFFE850EF16880EDECFE9FFDDCFC6
:10217000EAFFE850EF12FD0EDB500AE0FE0EEA6ABD
:10218000DB34FE0BEA36E96EC40EE926000E09D0F8
:10219000FE0EEA6ADB34FE0BEA36E96EBE0EE92675
:1021A000000EEA22EF74DECF10F0DDCF11F010C088
:1021B000F3FF11C0F4FF020EE15C02E2E16AE552B6
:1021C000E16EE552E7CFD9FF1200D9CFE6FFE1CFAC
:1021D000D9FF64A84ED0FE0EEA6ADB34FE0BEA3665
:1021E000E96EC40EE926000EEA22EE50EFCFEAFFB8
:1021F000E96E400EEE16EE6AEE6AEE6AFE0EEA6ACE
:10220000DB34FE0BEA36E96EC40EE926000EEA2244
:10221000EE50EFCFEAFFE96EEE7CFE0EEA6ADB34A9
:10222000FE0BEA36E96EC40EE926000EEA22EF74D0
:10223000400E106EFE0EEA6ADB34FE0BEA36E96EE3
:10224000C40EE926000EEA22EE50EFCFEAFFE96E57
:102250001050EF16FE0EEA6ADB34FE0BEA36E96E2A
:10226000C40EE926000EEA22EE50EFCFEAFFE96E37
:10227000EF7CE552E7CFD9FF1200646A606A000183
:10228000B76B12000001B75114E1646A606A160E60
:10229000616E0F019F0E5B6F7B0E606ED08EA2840D
:1022A000A084F28E64B602D06486FCD70001010ED1
:0422B000B76F1200F2
:0C22B400DACFE4FFE2CFDAFFE9CFE4FF6D
:1022C000EACFE4FFF6CFE4FFF7CFE4FFF5CFE4FF7A
:1022D000F3CFE4FFF4CFE4FFFACFE4FF00EE00F029
:1022E000100EE80403E3EECFE4FFFBD700EE10F09E
:1022F000080EE80403E3EECFE4FFFBD7E652A6ECBA
:1023000008F0E55200EE17F0080EE80403E3E5CF0D
:10231000EDFFFBD700EE0FF0100EE80403E3E5CF6E
:10232000EDFFFBD7E5CFFAFFE5CFF4FFE5CFF3FFF5
:10233000E5CFF5FFE5CFF7FFE5CFF6FFE5CFEAFF05
:10234000E5CFE9FFE5CFDAFF1100D8CFE4FFE0CF1A
:10235000E4FFE46EDACFE4FFE652E552E5CFDAFFC0
:10236000E550E5CFE0FFE5CFD8FF1000D9CFE6FF7D
:10237000E1CFD9FF0001B06B600EE66E000EE66E95
:10238000FD0EDBCFE6FFFE0EDBCFE6FFB3EC18F071
:10239000E552E552E552E5520001B051EA6A700F8C
:1023A000E96E000EEA22480EEF6EB02B600EE66E6C
:1023B000000EE66EB051116A700F106E000E112201
:1023C00010C0E6FF11C0E6FF1BEC1AF0E552E55223
:1023D000E552E552700EE66E000EE66E3CEC1AF029
:1023E000E552E552F3CFB0F00001F350EA6A700F06
:1023F000E96E000EEA22540EEF6EB02B600EE66E10
:10240000000EE66EFB0EDBCFE6FFFC0EDBCFE6FF39
:10241000B3EC18F0E552E552E552E552600EE66E77
:10242000000EE66E0001B051116A700F106E000EC2
:10243000112210C0E6FF11C0E6FF1BEC1AF0E552B6
:10244000E552E552E552700EE66E000EE66E3CEC8B
:102450001AF0E552E552F3CFB0F00001F350EA6A0A
:10246000700FE96E000EEA220D0EEF6EB02BB05128
:10247000EA6A700FE96E000EEA220A0EEF6E700E25
:10248000E66E000EE66E3CEC1AF0E552E552F3CF34
:10249000B0F0E552E7CFD9FF1200D9CFE6FFE1CF88
:1024A000D9FFE652FD0EDB50DF6E2DDAFE0EDBCFDC
:1024B000E6FF32DAE552DF6AFD0EDB04DF5C15E28F
:1024C00039DAE66EDFCF10F0116A10BE1168FB0E2C
:1024D000DB501024E96EFC0EDB501120EA6EE55251
:1024E000E750EF6E2FDADF2AE7D724DAE66EFD0E2B
:1024F000DB04E76EFB0EDBCFE9FFFC0EDBCFEAFF70
:10250000E750E926000EEA22E552E750EF6E16DAB0
:1025100000DAE552E552E7CFD9FF1200D9CFE6FF46
:10252000E1CFD9FF0E0EE126DF6A0D0EDB6A640EE5
:10253000E66EA6EC1AF0E5528B96E5D94E0EE66EE5
:10254000EBD9E552E6D9320EE66EA6EC1AF0E5526A
:10255000600EE66E000EE66E040EE66E4F0EE66E40
:102560009CDFE552E552E552E552DF2AC00E00013C
:1025700060150CE0DFCF10F0050EE76E1018E8AE26
:1025800002D0E73402D0E750105CDDE3060E60C0F5
:10259000E7FF070B04E0E742E79EE806FCE1E750AF
:1025A000030BE76E0D0EE7CFDBFF010EDB6A020EB9
:1025B000DB6A030EDB6A040EDB6A3F0E0001601566
:1025C000106E010E10C0DBFF020EDB6A030EDB6A29
:1025D000040EDB6A010EDBCF10F0020EDBCF11F030
:1025E000030EDBCF12F0040EDBCF13F0080E1F0B2F
:1025F00007E0D8901036113612361336E806F9E1A6
:10260000090E10C0DBFF0A0E11C0DBFF0B0E12C05B
:10261000DBFF0C0E13C0DBFF61C010F0116A126A01
:10262000136AD950090FE96EDACFEAFFEE501012A3
:10263000EE501112EE501212EE501312090E10C08D
:10264000DBFF0A0E11C0DBFF0B0E12C0DBFF0C0E0E
:1026500013C0DBFF090EDBCF04F00A0EDBCF05F061
:102660000B0EDBCF06F00C0EDBCF07F0640E096E0D
:102670000A6A0B6A0C6A4AEC1AF0090E00C0DBFF0A
:102680000A0E01C0DBFF0B0E02C0DBFF0C0E03C005
:10269000DBFF090EDBCF04F00A0EDBCF05F00B0EDB
:1026A000DBCF06F00C0EDBCF07F009683F0E0A6E99
:1026B0000B6A0C6A82EC1AF0090E04C0DBFF0A0EEA
:1026C00005C0DBFF0B0E06C0DBFF0C0E07C0DBFFF7
:1026D000010EDB6A020EDB6A030EDB6A040EDB6AA4
:1026E000010E62C0DBFF020EDB6A030EDB6A040E22
:1026F000DB6A010EDBCF10F0020EDBCF11F0030E10
:10270000DBCF12F0040EDBCF13F0080E1F0B07E037
:10271000D8901036113612361336E806F9E1050E58
:1027200010C0DBFF060E11C0DBFF070E12C0DBFF7F
:10273000080E13C0DBFF63C010F0116A126A136A3F
:10274000D950050FE96EDACFEAFFEE501012EE50C5
:102750001112EE501212EE501312050E10C0DBFFD4
:10276000060E11C0DBFF070E12C0DBFF080E13C000
:10277000DBFF050EDBCF10F0060EDBCF11F0070EEE
:10278000DBCF12F0080EDBCF13F0020ED89013321D
:10279000123211321032E806F9E1050E10C0DBFFEB
:1027A000060E11C0DBFF070E12C0DBFF080E13C0C0
:1027B000DBFF050EDBCF04F0060EDBCF05F0070EC6
:1027C000DBCF06F0080EDBCF07F0A50E096E0A6A14
:1027D0000B6A0C6A4AEC1AF0050E00C0DBFF060E0D
:1027E00001C0DBFF070E02C0DBFF080E03C0DBFFEA
:1027F000050EDBCF04F0060EDBCF05F0070EDBCFB6
:1028000006F0080EDBCF07F009683F0E0A6E0B6A70
:102810000C6A82EC1AF0050E04C0DBFF060E05C040
:10282000DBFF070E06C0DBFF080E07C0DBFFFB0E59
:10283000DBCFE9FFFC0EDBCFEAFF050EDBCFEEFFBF
:10284000060EDBCFEDFFFB0EDBCFE9FFFC0EDBCF8F
:10285000EAFF280EEE5E000EED5AFD0EDBCFE9FF1B
:10286000FE0EDBCFEAFF090EDBCFEEFF0A0EDBCF59
:10287000EDFF8B860D0EDB50106E0E0EE15C02E25A
:10288000E16AE552E16E1050E552E7CFD9FF120040
:10289000D9CFE6FFE1CFD9FF040EE12622D842ECE2
:1028A00011F009D9D950020FE66E000EDA20E66E5B
:1028B000D9CFE6FFDACFE6FF31DEE552E552E55249
:1028C000E552020EDBCFE6FF030EDBCFE6FFDECFE5
:1028D000E6FFDDCFE6FF4ADDE552E552E552E5527F
:1028E000E0D70F0EC11232D816EF08F0F00EC61462
:1028F0000809C66EC68A770EC86E9E9612009EA6FE
:10290000FED79E961200C5807FEF14F0C5827FEF40
:1029100014F0C5847FEF14F0D9CFE6FFE1CFD9FFE3
:10292000FE0EDB50C96EEBDFC5BCFED7E552E7CF2C
:10293000D9FF1200C586E3DFC9501200C58AC588D9
:102940007FEF14F0C59AC5887FEF14F0D9CFE6FF6A
:10295000E1CFD9FFE65220D8DF6ADF50106E116A4E
:10296000400E105C000E115809E2DF50EA6A700F49
:10297000E96E000EEA22EF6ADF2AEFD70001B06BA2
:10298000B16BB36BB46BF00E8B169416AFDFE552E0
:10299000E552E7CFD9FF1200D9CFE6FFE1CFD9FF4B
:1029A000E6527F6A938A939E240EAC6E900EAB6EB5
:1029B000710EAF6E020EB06E080EB86EAE50DF6EC6
:1029C000E552E552E7CFD9FF1200D9CFE6FFE1CFBC
:1029D000D9FFFE0EDB50AD6EE552E7CFD9FF1200F6
:1029E000D9CFE6FFE1CFD9FF040EE126D880000E53
:1029F00002014055C20E4155010E4255000E43558D
:102A00003CE340C2C8F241C2C9F242C2CAF243C268
:102A1000CBF2146A1B0E156EB70E166E176A14C031
:102A200004F015C005F0066E17C007F0C8C209F023
:102A3000C9C20AF0CAC20BF0CBC20CF082EC1AF089
:102A400004C010F005C011F006C012F007C013F06A
:102A50001006000E115A125A135A10C0DFFF010E51
:102A600011C0DBFF020E12C0DBFF030E13C0DBFF41
:102A7000DF50AF6E010EDB50B06E040EE15C02E27F
:102A8000E16AE552E16EE552E7CFD9FF1200D9CFF6
:102A9000E6FFE1CFD9FFE652ABA205D0AB98AE502E
:102AA000DF6EAB8802D0AE50DF6EDF50E552E552EC
:102AB000E7CFD9FF1200D9CFE6FFE1CFD9FF040E4F
:102AC000E126200E0001E76EB719E8AE02D0E73428
:102AD00002D0E750B75D19E36450020B16E1010123
:102AE000415111E10001B05100080DE2B0C0E6FF14
:102AF000700EE66E000EE66E6EEC17F0E552E552D3
:102B0000E5520001B06B0CEC18F0040EE15C02E23F
:102B1000E16AE552E16EE552E7CFD9FF120000010C
:102B2000F651F71104E1100EF66F270EF76FF60756
:102B3000000EF75B64A207D0F651F7112EE18B70FF
:102B40008BB013D027D00001B75102E18B9022D077
:102B5000B70502E18B8009D0020EB75D02E18B80E0
:102B600019D0040EB75D03E18B908B821200100E1A
:102B7000B75D06E10001F651F7110FE18B700AD045
:102B8000200EB75D0AE10001F651F71106E18B70E6
:102B90008BA002D08B9212008B82120012001200C6
:102BA0001200120045EF16F0120095EF16F000012A
:102BB000DA0520E10001DB051DE1A094F0DF64925D
:102BC0000001DB6B0001100EB56F0E0EB66FB5077E
:102BD000000EB65BB551B611FAE16484080EB56F0C
:102BE000070EB66FB507000EB65BB551B611FAE128
:102BF0006494A0841200D9CFE6FFE1CFD9FFFD0E87
:102C0000DBCF06F0FE0EDBCF07F0050E061801E164
:102C1000075036E0E868061802E17F0E07182FE03B
:102C2000030E061801E1075028E0020E061801E124
:102C3000075021E0010E061801E107501AE0740E5A
:102C4000061801E1075013E0750E061801E1075060
:102C50000CE0730E061801E1075005E0720E06182D
:102C60000FE107500DD09CDF0BD098DF09D097DF24
:102C700007D09BDF05D098DF03D094DF01D091DF30
:0A2C8000010EE552E7CFD9FF120064
:062C8A00020130511F0B96
:102C9000010801E012003051600BE842E842E842CE
:102CA000E842E842010801E01200345103E0340533
:102CB00001E012003151220A33E0030A26E0010A42
:102CC00015E0210A0DE0010A01E012000001510E99
:102CD000CC6F010ECD6F080ECF6FD06BCE8123D09D
:102CE0000001510ECC6F010ECD6F1DD036C2D4F055
:102CF00037C2D5F00001400ED16F020ED26FE00E48
:102D0000D66F290ED76FD38F12000001C80ECC6F7B
:102D1000020ECD6F070ECF6FD06BC10ECE6F1200BB
:102D200032C24CF10001CE8F12000201C86B4B0E73
:102D3000C96FCA6BCB6BCC6BCD6B080ECE6F01012C
:102D4000406B1A0EE66E010EE66EC7EC0FF0E55210
:102D5000E5521E0EE66E020EE66EC7EC0FF0E5526F
:102D6000E552400EE66E480EE66E020EE66EE66A2C
:102D7000020EE66E6CEC10F0106E050EE15E105067
:102D8000F3CF48F1F4CF49F101014A6B4B6B416B32
:102D90001200D9CFE6FFE1CFD9FFFD0EDBCF06F061
:102DA000FE0EDBCF07F0050E061801E1075002E02A
:102DB000000E30D0FB0EDBCF10F0FC0EDBCF11F09D
:102DC00001014851101816E14951111813E1400E44
:102DD000E66E480EE66E020EE66EE66A020EE66EDD
:102DE0006CEC10F0106E050EE15E1050F3CF48F160
:102DF000F4CF49F1FB0EDBCF10F0FC0EDBCF11F06E
:102E000001014A51101805E14B51111802E1416BC3
:102E1000466B010EE552E7CFD9FF1200D9CFE6FF8E
:102E2000E1CFD9FF0101406B4851491102E1000E89
:102E300008D048C1E9FF49C1EAFFEF50800B01E02B
:102E4000010E000945E1FC0EDBCF10F048C1E9FF9F
:102E500049C1EAFFEE52EF50D880105408E248C151
:102E6000E9FF49C1EAFFEE52FC0EEFCFDBFF406BFA
:102E7000FC0EDB50405D19E24051EA6A480FE96EF2
:102E8000020EEA22EF50E66E4051E76EFD0EDBCFF8
:102E9000E9FFFE0EDBCFEAFFE750E926000EEA224B
:102EA000E552E750EF6E402BE3D7400EE66E480E3A
:102EB000E66E020EE66EE66A020EE66E6CEC10F04E
:102EC000106E050EE15E1050F3CF48F1F4CF49F1DA
:102ED00001014051E552E7CFD9FF1200D9CFE6FFFB
:102EE000E1CFD9FFA094010141510CE1FD0EDBCFF0
:102EF00042F1FE0EDBCF43F1FC0EDBCF46F1010EBB
:102F0000476F416FA084E552E7CFD9FF1200D9CFB8
:102F1000E6FFE1CFD9FF030EE126A0940101415164
:102F20002DE1DF6AFD0EDBCF06F0FE0EDBCF07F0F2
:102F3000DE5206C0DEFF07C0DDFFDD52DF2ADF50B4
:102F4000106E116AFF0E101802E111500BE0010E15
:102F5000DBCFE9FFDB2A020EDBCFEAFF01E3DB2A4E
:102F6000EF50ECE1FD0EDBCF42F1FE0EDBCF43F183
:102F7000DFCF46F10101010E476F416FA084030EC0
:102F8000E15C02E2E16AE552E16EE552E7CFD9FF8A
:102F90001200D9CFE6FFE1CFD9FF030EE126A094BE
:102FA000010141512EE1DF6AFD0EDBCF06F0FE0E7E
:102FB000DBCF07F0DE5206C0DEFF07C0DDFFDD52CB
:102FC000DF2ADF50106E116AFF0E101802E1115057
:102FD0000CE0010EDBCFF6FFDB2A020EDBCFF7FFA2
:102FE00001E3DB2A0800F550EBE1FD0EDBCF42F1F7
:102FF000FE0EDBCF43F1DFCF46F10101476B010E3F
:10300000416FA084030EE15C02E2E16AE552E16EE9
:10301000E552E7CFD9FF1200D9CFE6FFE1CFD9FFC4
:10302000020EE126A09401014A514B1102E1000E6B
:1030300008D04AC1E9FF4BC1EAFFEF50800B01E025
:10304000010E000906E1030E415D01E1416B4151B2
:1030500002E1A0847ED0020E415D16E1E66A000E18
:10306000E66EE66A010EE66E020EE66E6CEC10F09D
:10307000106E050EE15E1050F3CF4AF1F4CF4BF124
:103080000101030E416F64D0410562E1400E106EF4
:10309000116A4651105C000E115803E2400EDF6EBB
:1030A00002D046C1DFFFDF50465D466F880E446F99
:1030B000020E456F010EDFCFDBFF475116E1010E17
:1030C000DB5028E042C1F6FF43C1F7FF0800F5508E
:1030D00044C1E9FF45C1EAFFEF6E442B000E4523D2
:1030E000422B4323010EDB06EAD7010EDB5012E030
:1030F00042C1E9FF43C1EAFFEF5044C1E9FF45C1C6
:10310000EAFFEF6E442B000E4523422B4323010EB2
:10311000DB06EBD70101465107E1400EDF5C02E11F
:10312000020E01D0030E416FDFCFE6FF880EE66E80
:10313000020EE66E010EE66E020EE66E6CEC10F00C
:10314000106E050EE15E1050F3CF4AF1F4CF4BF153
:10315000A084020EE15C02E2E16AE552E16EE55212
:06316000E7CFD9FF1200C9
:0A316600D9CFE6FFDACFE6FFFA0E3C
:10317000E3CFD9FFFB0EE3CFDAFFFD0EE35209E701
:103180002D0EDE6EFC0EE31EE32AFD0ED8B4E30620
:10319000E31EE652E652E652FD0EE124E76EFF0E14
:1031A000E220E46EE652F70EE3CFE6FFF70EE3CF40
:1031B000E6FF23EC19F0F90EE124E96EFF0EE220A0
:1031C000EA6E13EC19F00AE110EC19F009E113ECC6
:1031D00019F008E110EC19F007E108D01EEC19F025
:1031E00019EC19F01EEC19F019EC19F01EEC19F09D
:1031F000DE6AF90EE126FF0EE222FF0EE3CFDAFFD0
:10320000E552FF0EE3CFD9FFE552FC0EE124E96E53
:10321000FF0EE220EA6EEECFF3FFEFCFF4FF1200D5
:10322000EF380F0B1200EF500F0B02E1EE52D88473
:103230001200EF380F0B300FDE6E1200EE500F0B46
:10324000300FDE6E1200FC0EE3CFE9FFFD0EE3CF80
:10325000EAFF100EE66EEE6AEE6AEF6AD890FD0E97
:10326000E336FE0EE336ED36ED36EF36FF0EE306BF
:1032700009E044EC19F0EE5244EC19F0EE5244EC43
:1032800019F0EDD7E56E1200030EEF24E8B6EF6EED
:0A329000300EEF24E8BEEF6E000CD4
:06329A0012010002020017
:1032A0000008D8040A0000010102000109024300DD
:1032B000020100C0320904000001020201000524DD
:1032C0000010010424020205240600010524010067
:1032D000010705810308000209040100020A000039
:1032E00000070502024000000705820240000004BA
:1032F00003090434034D006900630072006F00632A
:1033000000680069007000200054006500630068D8
:10331000006E006F006C006F0067007900200049AC
:10332000006E0063002E003403430044004300207D
:1033300000520053002D00320033003200200045BF
:10334000006D0075006C006100740069006F006E14
:10335000002000440065006D006F00AC32EF32F3D6
:03336000322733DE
:0C3364001E0EF66E100EF76E000EF86ED6
:1033700000010900F550F06F0900F550F16F03E10D
:10338000F06701D03DD00900F550EB6F0900F55012
:10339000EC6F0900F550ED6F09000900F550E96E7A
:1033A0000900F550EA6E090009000900F550EE6FBA
:1033B0000900F550EF6F09000900F6CFF2F0F7CFE2
:1033C000F3F0F8CFF4F0EBC0F6FFECC0F7FFEDC080
:1033D000F8FF0001EE5302E1EF5307E00900F5505A
:1033E000EE6EEE07F8E2EF07F9D7F2C0F6FFF3C092
:1033F000F7FFF4C0F8FF0001F007000EF15BBFD744
:023400001200B8
:0E340200FE0EE3CFE9FFFF0EE3CFEAFFE9CFB6
:10341000F3FFEACFF4FFFB0EE35003E1FC0EE350B1
:1034200009E0FB0EE30602E2FC0EE306FD0EE350AC
:10343000EE6EF1D71200D9CFE6FFDACFE6FFFA0E33
:10344000E3CFD9FFFB0EE3CFDAFFFC0EE3CFE9FFBA
:10345000FD0EE3CFEAFFE9CFF3FFEACFF4FFDECFC3
:10346000EFFFEE66FCD7FF0EE3CFDAFFE552FF0E6B
:10347000E3CFD9FFE5521200FE0EE3CFE9FFFF0EC6
:10348000E3CFEAFFF36AF46AEE5203E0F34AF42A68
:04349000FBD7120054
:0C34940004500902F3CF00F0F4CF01F067
:1034A0000A02F3500126000EF420026E04500B02B3
:1034B000F3500226000EF420036E04500C02F35069
:1034C000032605500902F3500126F4500222000E93
:1034D000032205500A02F3500226F450032205503D
:1034E0000B02F350032606500902F3500226F45053
:1034F000032206500A02F350032607500902F35034
:04350000032612008C
:0C350400036A026A016A006A200EE76E8A
:10351000D8900436053606360736003601360236B0
:1035200003360950005C0A5001580B5002580C50E9
:10353000035809E30950005E0A50015A0B50025A21
:0C3540000C50035A042AE72EE4D71200B6
:04354C00FF0EE3503B
:10355000196EEF0E01D0F30EE76EE72EADEF1AF005
:103560000C0E186EE76AE72EB3EF1AF0182EB2EFC2
:0A3570001AF0192EABEF1AF012004A
:06357A00000EF36E00EEEE
:1035800000F0030E01D81200EA6002D0EE6AFCD708
:0A359000F350E9601200EE6AFCD768
:06359A0011EE00F021EE2D
:1035A00000F0F86A0F9CB2EC19F003EC08F048EC5C
:0635B00014F0FBD712002D
:020000040030CA
:0100000000FF
:0100010032CC
:0100020021DC
:010003001EDE
:0100050000FA
:010006008178
:0100080003F4
:01000900C036
:01000A0003F2
:01000B00E014
:01000C0003F0
:01000D0040B2
:00000001FF
